:0400000014EF78F091
:10F01E00BA84120038EC78F01200000157EF7CF041
:10F02E00026E02501CEC78F01200016E9EA8FED704
:10F03E0001C0ADFF1200700ED36E040ED26E400EE4
:10F04E009B6E1200C00EC76E220EC66E000EC86EEC
:10F05E001200016EC69E01C0C9FFC7A0FED7C950DF
:10F06E0012009EAAFED7ABA202D0AB98AB88AE50D0
:10F07E0012007A0EBA6EBB68000EBC6E9E920FEC3A
:10F08E0078F012003C0E0F01576F7F0E586F000E76
:10F09E00596FFC0E48171200480EB86E900EAB6EEC
:10F0AE00260EAC6E2F0EAF6E030EB06E120022EC5B
:10F0BE0078F08DEC78F053EC78F029EC78F040ECA9
:10F0CE0078F049EC78F01200036E000E026E3A0EE4
:10F0DE00036005D02F0E036402D0010E026E02C033
:10F0EE0001F00130120001500302F3CF05F0F4CF0E
:10F0FE0006F001500402F350062602500302F350AC
:10F10E00062605C001F006C002F01200000E896E40
:10F11E0092682F0E0F01386F000E8A6EFE0E936EE0
:10F12E003E0E396F000E616E070E8B6ED00E946E12
:10F13E00000E3A6FF18E120001C003F002C004F00F
:10F14E00D89004320332D8900432033203500F01A8
:10F15E00586F01C003F0030E0316033AF00E0316A8
:10F16E005751CF0B0310576F120001C005F002C0AC
:10F17E0006F002D0054A062A05C0D9FF06C0DAFFFE
:10F18E00DF50D8A4F7D701C003F002C004F0031E6D
:10F19E00041E034A042A05500324016E065004205F
:10F1AE00026E12000A500B10D8B418D0010E0C6E5D
:10F1BE0004D0D8900A360B360C2A0BAEFAD70A506A
:10F1CE00085C0B500958D8A004D00A50085E0B50AA
:10F1DE00095AD8900B320A320C2EF1D708C008F01B
:10F1EE0009C009F01200000E066E000E056E0350E7
:10F1FE000410D8B41CD0010E076E04D0D89003367C
:10F20E000436072A04AEFAD7D890053606360350D0
:10F21E00015C04500258D8A005D00350015E045082
:10F22E00025A0580D89004320332072EEDD705C05E
:10F23E0001F006C002F01200000E096E000E0A6EFA
:10F24E00000E0B6E000E0C6E01A008D005500926A4
:10F25E0006500A2207500B2208500C22D890053671
:10F26E00063607360836D89004320332023201329F
:10F27E000150021003100410D8A4E6D709C001F003
:10F28E000AC002F00BC003F00CC004F01200000E16
:10F29E00076E0450D8B4120002500310D8A426D022
:10F2AE002AD005500610D8A40CD00750010DF350EB
:10F2BE000224D96EF4500320DA6EDF5030EC78F071
:10F2CE0014D00750010DF3500524D96EF4500620CA
:10F2DE00DA6E0750010DF3500224E16EF450032054
:10F2EE00E26EE75030EC78F0DF6E072A0450075CD0
:10F2FE00D8B01200D6D705500610D8B412000DD0D3
:10F30E000750010DF3500524D96EF4500620DA6E25
:10F31E00000E30EC78F0DF6E072A0450075CD8B090
:10F32E001200EED70BC016F00BC011F00CC012F08D
:10F33E000DC013F012C011F013C012F0136A115069
:10F34E00156E0DC014F00AC011F0010E126E112AC6
:10F35E0002D0D8901236112EFCD71250FF0A136E1F
:10F36E0008C0D9FF09C0DAFF1350DF16030E30ECC8
:10F37E0078F0140E026E000E036E030E046E000E75
:10F38E00056E000E066E4EEC79F0000E026E000E4B
:10F39E00036E10C004F00EC005F00FC006F04EEC68
:10F3AE0079F00AC011F0010E126E112A02D0D89017
:10F3BE001236112EFCD708C0D9FF09C0DAFF125041
:10F3CE00DF1212000BC016F00BC011F00CC012F0C1
:10F3DE000DC013F012C011F013C012F0136A1150C9
:10F3EE00156E0DC014F00AC011F0010E126E112A26
:10F3FE0002D0D8901236112EFCD71250FF0A136E7F
:10F40E0008C0D9FF09C0DAFF1350DF16020E30EC28
:10F41E0078F0140E026E000E036E030E046E000ED4
:10F42E00056E000E066E4EEC79F00EC002F00FC0A7
:10F43E0003F010C004F0000E056E000E066E4EECCA
:10F44E0079F00AC011F0010E126E112A02D0D89076
:10F45E001236112EFCD708C0D9FF09C0DAFF1250A0
:10F46E00DF121200000E096E000E086E38EC78F0F6
:10F47E000A6E0D0E0A18D8A40FD00A5017EC78F0A9
:10F48E000A0E17EC78F008500324D96E09500420A8
:10F49E00DA6E000EDF6E12007F0E0A18D8B404D09A
:10F4AE00080E0A18D8A414D009BEE0D7095003E1FB
:10F4BE000804D8A0DBD70A5017EC78F0200E17EC12
:10F4CE0078F00A5017EC78F00806D8A00906CED7C7
:10F4DE001F0E0A64CBD70550085C0950800A076ED0
:10F4EE000650800A0758D8B0C1D70A5017EC78F0EA
:10F4FE0008500324D96E09500420DA6E0AC0DFFFCB
:10F50E00084A092AB3D702D0074A082A07C0D9FFEA
:10F51E0008C0DAFF200EDE18D8B4F6D707C0D9FF20
:10F52E0008C0DAFF090EDE18D8B4EED7000E0D6E45
:10F53E00000E0C6E000E0B6E07C0D9FF08C0DAFF6E
:10F54E002D0EDE18D8A402D00B2A24D007C0D9FF66
:10F55E0008C0DAFF2B0EDE18D8A41ED01BD00CC0AC
:10F56E0001F00DC002F0000E046E0A0E036E7AEC6E
:10F57E0078F007C0D9FF08C0DAFFDF50096E0A6ABB
:10F58E000150092602500A22D00E09240C6EFF0EDD
:10F59E000A200D6E074A082A07C0D9FF08C0DAFFF5
:10F5AE00DF506BEC78F0D8B0DAD70B50D8B40DD062
:10F5BE000CC009F00DC00AF0091E0A1E094A0A2ADB
:10F5CE0009C007F00AC008F012000CC007F00DC009
:10F5DE0008F012000DC0D9FF0EC0DAFFDF501A6E10
:10F5EE000D4A0E2A200E1A18D8B4F4D7090E1A187E
:10F5FE00D8B4F0D7000E166E000E176E000E186EF1
:10F60E00000E196E000E156E2D0E1A18D8A402D00B
:10F61E00152A27D02B0E1A18D8A42BD022D016C0FC
:10F62E0001F017C002F018C003F019C004F00A0E62
:10F63E00056E000E066E000E076E000E086E23ECB1
:10F64E0079F01AC011F0D00E112611500124166E49
:10F65E00000E0220176E000E0320186E000E0420FE
:10F66E00196E0DC0D9FF0EC0DAFFDF501A6E0D4AAB
:10F67E000E2A1A506BEC78F0D8B0D1D71550D8B4FA
:10F68E001AD016C011F017C012F018C013F019C01E
:10F69E0014F0111E121E131E141E112A000E122219
:10F6AE001322142211C00DF012C00EF013C00FF071
:10F6BE0014C010F0120016C00DF017C00EF018C0D6
:10F6CE000FF019C010F012000F0E186E000E196E0A
:10F6DE00D9D0250E1C18D8B404D01C5017EC78F0D5
:10F6EE00D1D0000E146E4DD018C0D9FF19C0DAFF5C
:10F6FE00DECF16F0DDCF17F0020E1826000E1922FF
:10F70E0016501710D8A41AD0F30E166EFF0E176EE1
:10F71E0015D016C0F6FF17C0F7FF000EF86E0F0ECD
:10F72E00F76403D00800F55005D0F6CFE1FFF7CF10
:10F73E00E2FFE75017EC78F0164A172A16C0F6FFCC
:10F74E0017C0F7FF000EF86E0F0EF76403D0080017
:10F75E00F55005D0F6CFE1FFF7CFE2FFE7500009F5
:10F76E00D8B490D0D6D718C0D9FF19C0DAFFDF5061
:10F77E001C6E020E1826000E19221C5017EC78F083
:10F78E0081D00DC0F6FF0EC0F7FF0D4A0E2AF86AA3
:10F79E000800F5CF1CF01C50000AD8B41200630A02
:10F7AE00D8B4E1D7070AD8B407D00D0AD8B404D01C
:10F7BE001A0AD8B499D7E1D718C0D9FF19C0DAFF01
:10F7CE00DECF1AF0DDCF1BF0020E1826000E192226
:10F7DE001BAE06D0030E14121A6C1B1ED8B01B2AB9
:10F7EE00010E1C6E050E1C18D8B415D01C50020D3F
:10F7FE00EB0EF324F66EFC0EF420F76EF86A000E94
:10F80E00F8220900F5501A5C0900F5501B58D8A0D3
:10F81E0002D01C2AE7D714C013F0030E1316D8B467
:10F82E0003D02D0E17EC78F01CC015F027D0155014
:10F83E00020DEB0EF324F66EFC0EF420F76EF86A52
:10F84E00000EF8220900F5CF03F00A00F5CF04F000
:10F85E001AC001F01BC002F0FAEC78F001C008F0FB
:10F86E0002C009F0000E0B6E0A0E0A6ED9EC78F08B
:10F87E000850300F1C6E1C5017EC78F0150615282A
:10F88E00D8A4D5D70DC0F6FF0EC0F7FF0D4A0E2A2D
:10F89E00F86A0800F5CF1CF01C50D8B4120019D726
:10F8AE005EEC78F0000E00019D6F000E9E6F000E54
:10F8BE009F6F000EA06F000EA36F000EA46F000EC0
:10F8CE00A56F020E9C6FBF0E0D6EFF0E0E6E6BECD3
:10F8DE007BF0EC0E0D6EFE0E0E6E6BEC7BF0D60E0C
:10F8EE000D6EFF0E0E6E6BEC7BF0C20E0D6EFF0EEC
:10F8FE000E6E6BEC7BF0AE0E0D6EFF0E0E6E6BECA5
:10F90E007BF0EA0E0D6EFF0E0E6E6BEC7BF011ECC3
:10F91E0078F00001A66FFA0E0D6EFF0E0E6EA6C0E9
:10F92E000FF0106A6BEC7BF00ED0200E03D0210E80
:10F93E0001D0220EC66E13D01E0E0D6EFE0E0E6E72
:10F94E006BEC7BF00CD00001A651610AD8B4EDD758
:10F95E00030AD8B4ECD7010AD8B4EBD7EDD7610EB1
:10F96E000001A619D8B408D0620EA619D8B404D0D6
:10F97E00630EA619D8A4ADD7000E0001A26F000E1B
:10F98E00A16FA2BF06D0A25117E11E0EA15DD8B085
:10F99E0013D0600EA125D96E000EA221DA6E000ED4
:10F9AE00DF6E7E0EA125D96E000EA221DA6E000E3C
:10F9BE00DF6EA14BA22BE5D7BC0E0D6EFE0E0E6EAA
:10F9CE006BEC7BF01A0E0D6EFF0E0E6E6BEC7BF079
:10F9DE00600E036E000E046E000E066E1E0E056E99
:10F9EE0039EC7AF0600E0D6E000E0E6EF1EC7AF0C0
:10F9FE000DC09DF00EC09EF00FC09FF010C0A0F085
:10FA0E000001A0519F1104E1040E9E5DD8A007D005
:10FA1E00E50E0D6EFD0E0E6E6BEC7BF00AD0000146
:10FA2E006051D8B406D09DC001F09EC002F0A3EC88
:10FA3E0078F00001A0519F11BFE1040E9E5DD8B079
:10FA4E00BBD7F50E0D6EFC0E0E6E6BEC7BF0890EB9
:10FA5E000D6EFE0E0E6E6BEC7BF011EC78F000016D
:10FA6E00A66FFA0E0D6EFF0E0E6EA6C00FF0106A88
:10FA7E006BEC7BF0610E0001A619D8A486D0330E74
:10FA8E000D6EFD0E0E6E6BEC7BF0600E036E000EB7
:10FA9E00046E000E066E1E0E056E39EC7AF0600EC8
:10FAAE00076E000E086E8AEC7AF007C0A3F008C04D
:10FABE00A4F00001A56BA4BFA5078B0E086E0F0E58
:10FACE00096E000E0A6EA3C00BF0A4C00CF0A5C008
:10FADE000DF07E0E0E6E000E0F6E1E0E106E99EC59
:10FAEE0079F0000E00019B6F700E0D6EFD0E0E6E06
:10FAFE00A3C00FF0A4C010F07E0E116E000E126E99
:10FB0E006BEC7BF08B0E086E0F0E096E010E0A6EFB
:10FB1E00A3C00BF0A4C00CF0A5C00DF07E0E0E6EAF
:10FB2E00000E0F6E1E0E106E99EC79F0000E000195
:10FB3E009B6FE00E0D6EFD0E0E6E7E0E0F6E000EA6
:10FB4E00106E6BEC7BF08B0E086E0F0E096E020EB4
:10FB5E000A6EA3C00BF0A4C00CF0A5C00DF07E0E73
:10FB6E000E6E000E0F6E1E0E106E99EC79F0000EDA
:10FB7E0000019B6FE00E0D6EFD0E0E6E7E0E0F6E73
:10FB8E00000E106E6BEC7BF0F7D6620E0001A6191C
:10FB9E00D8A49DD0460E0D6EFF0E0E6E6BEC7BF054
:10FBAE0011EC78F00001A66FFA0E0D6EFF0E0E6EC0
:10FBBE00A6C00FF0106A6BEC7BF00FD0000E0001A8
:10FBCE0003D0010E01D0020E9C6F13D01E0E0D6ECF
:10FBDE00FE0E0E6E6BEC7BF00CD00001A651610A8E
:10FBEE00D8B4ECD7030AD8B4ECD7010AD8B4EBD703
:10FBFE00EDD7710E0D6EFF0E0E6E6BEC7BF0600E80
:10FC0E00036E000E046E000E066E1E0E056E39ECAF
:10FC1E007AF0600E076E000E086E8AEC7AF007C05E
:10FC2E00A3F008C0A4F00001A56BA4BFA507970E12
:10FC3E000D6EFF0E0E6E6BEC7BF0600E036E000E03
:10FC4E00046E000E066E1E0E056E39EC7AF08B0EEB
:10FC5E00086E0F0E096E9CC00AF0A3C00BF0A4C074
:10FC6E000CF0A5C00DF0600E0E6E000E0F6E600E45
:10FC7E00016E000E026EBCEC78F00150106EE9ECD5
:10FC8E0079F08B0E086E0F0E096E9CC00AF0A3C0A1
:10FC9E000BF0A4C00CF0A5C00DF07E0E0E6E000E83
:10FCAE000F6E1E0E106E99EC79F0000E00019B6F18
:10FCBE00AB0E0D6EFD0E0E6EA3C00FF0A4C010F0B5
:10FCCE007E0E116E000E126E6BEC7BF055D6550E3D
:10FCDE000D6EFE0E0E6E6BEC7BF04ED60001000A22
:10FCEE00006400E803102744696769746172652037
:10FCFE00696E76696F20706572207269746F726EAC
:10FD0E0061726520616C6C612073656C657A696FD8
:10FD1E006E652064656C2064757479206379636CFC
:10FD2E00652E0A0D00446967697461726520612051
:10FD3E007175616C6520696E646972697A7A6F207B
:10FD4E007374616D7061726520696C20636F6E747F
:10FD5E00656E75746F2064656C6C652052414D3A0A
:10FD6E0020004C6520737472696E6768652061743B
:10FD7E007475616C6D656E746520696E206D656D50
:10FD8E006F72696120616C6C27696E646972697A41
:10FD9E007A6F2025643A0A0D25730A0D004C6120F6
:10FDAE00737472696E67612061747475616C6D65D0
:10FDBE006E746520696E206D656D6F72696120616C
:10FDCE006C6C27696E646972697A7A6F2025643A61
:10FDDE000A0D25730A0D00496D6D657474657265A3
:10FDEE0020756E2076616C6F726520636F6D707218
:10FDFE0065736F206E656C6C27696E7465727661C3
:10FE0E006C6C6F2030202D20313032332E0A0D00D5
:10FE1E00446967697461726520736F6C6F20756ECB
:10FE2E006F207472612069206361726174746572EF
:10FE3E006920616D6D657373693A20612C622C20A7
:10FE4E006F20632E0A0D0044696769746172652024
:10FE5E00736F6C6F20756E6F2074726120692063F2
:10FE6E00617261747465726920616D6D6573736919
:10FE7E003A2061206F20622E0A0D00446967697472
:10FE8E00617265207365206C6567676572652028F1
:10FE9E006129206F2073637269766572652028620E
:10FEAE00292064616C6C652052414D3A20004469F2
:10FEBE0067697461726520696E76696F207065720C
:10FECE00206E6F6E206170706F7274617265206348
:10FEDE00616D6269616D656E74692E0A0D00536500
:10FEEE006C657A696F6E617265206C612076656CE7
:10FEFE006F63697461272064656C20747261736628
:10FF0E006572696D656E746F3A0A0D0044696769B2
:10FF1E007461726520696C206475747920637963ED
:10FF2E006C652064656C2050574D202830202D20A4
:10FF3E0031303233293A2000446967697461726541
:10FF4E00207375207175616C652052414D2073636D
:10FF5E007269766572652028612C622C206F206391
:10FF6E00293A004469676974617265206120717570
:10FF7E00616C6520696E646972697A7A6F20736349
:10FF8E007269766572653A200044696769746172B8
:10FF9E006520756E6120737472696E67613A200018
:10FFAE00096309464F53432F36342028314D487A82
:10FFBE00290A0D00096209464F53432F3136202876
:10FFCE00344D487A290A0D00096109464F53432FD3
:10FFDE0034202831364D487A290A0D007363656C3A
:10FFEE0074613A2000286E756C6C290025630A0D29
:02FFFE00000001
:020000040020DA
:08000000FFFFFFFFFFFFFFFF00
:020000040030CA
:0E000000FF181F3CFFBF81FF0FC00FE00F4035
:00000001FF
